:0A00000002151E7B017A00796822C8
:10000B000213F47F301200157F06AD07C2B6C2B5DE
:10001B00C2B4120F5C021CBC021A3DE709F608DFE2
:10002B00FA8046E709F208DFFA803E88828C83E784
:10003B0009F0A3DFFA8032E309F608DFFA8078E3F0
:10004B0009F208DFFA807088828C83E309F0A3DF62
:10005B00FA806489828A83E0A3F608DFFA805889E4
:10006B00828A83E0A3F208DFFA804C80D280FA8088
:10007B00C680D4806980F28033801080A680EA80AD
:10008B009A80A880DA80E280CA803389828A83ECE6
:10009B00FAE493A3C8C582C8CCC583CCF0A3C8C56A
:1000AB0082C8CCC583CCDFE9DEE7800D89828A83E9
:1000BB00E493A3F608DFF9ECFAA9F0EDFB228982B1
:1000CB008A83ECFAE0A3C8C582C8CCC583CCF0A365
:1000DB00C8C582C8CCC583CCDFEADEE880DB898269
:1000EB008A83E493A3F208DFF980CC88F0EF6001F8
:1000FB000E4E60C388F0ED2402B4040050B9F582B3
:10010B00EB2402B4040050AF2323458223900076E6
:10011B0073BB010689828A83E0225002E722BBFE71
:10012B0002E32289828A83E49322BB010CE58229B4
:10013B00F582E5833AF583E0225006E92582F8E65D
:10014B0022BBFE06E92582F8E222E58229F582E54B
:10015B00833AF583E49322BB010FF8E58229F582FC
:10016B00E5833AF583E028F0225009C58229F8E5AA
:10017B008226F622BBFE09C58229F8E22582F222ED
:10018B00F8EA2583F583E9932822BB010689828A45
:10019B0083F0225002F722BBFE01F322F8BB010DC4
:1001AB00E58229F582E5833AF583E8F0225006E9EA
:1001BB002582C8F622BBFE05E92582C8F222C2D5EC
:1001CB00EC30E709B2D5E4C39DFDE49CFCEE30E7CF
:1001DB0015B2D5E4C39FFFE49EFE12048AC3E49DCF
:1001EB00FDE49CFC800312048A30D507C3E49FFF17
:1001FB00E49EFE22C5F0F8A3E028F0C5F0F8E582F6
:10020B00158270021583E038F022A3F8E0C5F025C3
:10021B00F0F0E582158270021583E0C838F0E82211
:10022B00BB010DE58229F582E5833AF583020509C9
:10023B005007E92582F80204F7BBFE07E92582F88F
:10024B00020532E58229F582E5833AF583020544FE
:10025B00BB0120E58229F582E5833AF583D0F0D006
:10026B00E0F8D0E0F9D0E0FAD0E0FBE8C0E0C0F075
:10027B000205295018E92582F8D083D082D0E0F905
:10028B00D0E0FAD0E0FBC082C083020500BBFE18B1
:10029B00E92582F8D083D082D0E0F9D0E0FAD0E023
:1002AB00FBC082C08302053B22E3F5F009E208B5EF
:1002BB00F06BDFF58067E3F5F009E608B5F05EDF7C
:1002CB00F5805A87F009E608B5F052DFF6804E87C5
:1002DB00F009E208B5F046DFF6804288828C83870E
:1002EB00F009E0A3B5F036DFF6803288828C838785
:1002FB00F009E493A3B5F025DFF5802188828C8388
:10030B00E3F5F009E0A3B5F014DFF5801088828CDB
:10031B0083E3F5F009E493A3B5F002DFF40203E302
:10032B00808780E9809080D4803E8015806E807EAF
:10033B00809D80B7808D80A380518074803C0203A8
:10034B00EF89828A83ECFAE493F5F0A3C8C582C8DF
:10035B00CCC583CCE493A3C8C582C8CCC583CCB52C
:10036B00F076DFE3DEE1807089828A83E493F5F037
:10037B00A3E208B5F062DFF4805E89828A83E0F540
:10038B00F0A3E608B5F051DFF5804D89828A83E052
:10039B00F5F0A3E208B5F040DFF5803C89828A8353
:1003AB00E493F5F0A3E608B5F02EDFF4802A800283
:1003BB00805789828A83ECFAE493F5F0A3C8C5824F
:1003CB00C8CCC583CCE0A3C8C582C8CCC583CCB58B
:1003DB00F006DFE4DEE280007FFFB5F0020F224083
:1003EB00027F012289828A83ECFAE0F5F0A3C8C56B
:1003FB0082C8CCC583CCE0A3C8C582C8CCC583CC8E
:10040B00B5F0D5DFE5DEE380CF89828A83ECFAE0B5
:10041B00F5F0A3C8C582C8CCC583CCE493A3C8C5EB
:10042B0082C8CCC583CCB5F0AFDFE4DEE280A9880F
:10043B00F0EF60010E4E60ABED2402B40400509857
:10044B00F582EB2402B40400508E232345822390C3
:10045B00032B73EF4E6012EF60010EEDBB010B89A6
:10046B00828A83F0A3DFFCDEFA2289F05007F709BA
:10047B00DFFCA9F022BBFEFCF309DFFCA9F022BCD8
:10048B00000BBE0029EF8DF084FFADF022E4CCF819
:10049B0075F008EF2FFFEE33FEEC33FCEE9DEC987E
:1004AB004005FCEE9DFE0FD5F0E9E4CEFD22EDF804
:1004BB00F5F0EE8420D21CFEADF075F008EF2FFFA7
:1004CB00ED33FD4007985006D5F0F222C398FD0F8F
:1004DB00D5F0EA22E0FCA3E0FDA3E0FEA3E0FF22BF
:1004EB00ECF0A3EDF0A3EEF0A3EFF022E6FB08E6B1
:1004FB00FA08E6F922EBF608EAF608E9F622E0FB41
:10050B00A3E0FAA3E0F922F8E0FBA3A3E0F925F0BE
:10051B00F0E582158270021583E0FA38F022EBF0D9
:10052B00A3EAF0A3E9F022E2FB08E2FA08E2F922DF
:10053B00EBF208EAF208E9F222E493FB740193FA76
:10054B00740293F922D083D082F8E4937012740171
:10055B0093700DA3A393F8740193F5828883E473CE
:10056B007402936860EFA3A3A380DFE5082443F52F
:10057B0082E43400F583E005082290004030070345
:10058B00900043E475F00112051202011C2000E9F2
:10059B007F2ED2008018EF540F2490D43440D4FF18
:1005AB0030040BEF24BFB41A0050032461FFE5099C
:1005BB0060021509050CE50C7002050B30070E9057
:1005CB000040E475F001120512EF020195021D0ABD
:1005DB007403D2078003E4C207F5089000401205AC
:1005EB0029E4F509F50BF50CE50960077F201205E9
:1005FB00B980F5750AFFC201C200C202C203C2056F
:10060B00C206C208120585FF700D3007057F001268
:10061B0005CAAF0CAE0B22B4255FC2D5C2041205BE
:10062B0085FF24D0B40A00501A75F00A780930D52A
:10063B000508B6FF0106C6A426F620D5047002D223
:10064B000380D924CFB41A00EF5004C2E5D20402C0
:10065B0007CBD20180C6D20080C0D20280BCD2D5DB
:10066B0080BAD20580B47F201205B920020774012D
:10067B00B5090040F1120576FF1205B90205F3D258
:10068B0008D2068095120576FB120576FA120576CE
:10069B00F94A4B7006799C7A087BFF20022EE509FC
:1006AB00602A7E008E8275830012013560060EEE85
:1006BB00650A70F0C2D5EBC0E0EAC0E0E9C0E0EE3D
:1006CB00120812D0E0F9D0E0FAD0E0FB12011CFFC7
:1006DB0060AAEBC0E0EAC0E0E9C0E01205B9D0E0E7
:1006EB002401F9D0E03400FAD0E0FBE50A0460DC29
:1006FB00D50AD980877BFF7A08790ED202809C7944
:10070B001080027908C206C2088008D2D5790A8007
:10071B0004790AC2D5E50A047002F50AE4FAFDFE73
:10072B00FF120576FC7B08200113120576FD7B106A
:10073B0030000A120576FE120576FF7B20EC338221
:10074B00D592D55013C3E43000069FFFE49EFEE420
:10075B002001039DFDE49CFCE4CBF8C201EC700C82
:10076B00CFCECDCCE824F8F870F38017C3EF33FF6E
:10077B00EE33FEED33FDEC33FCEB33FB994002FB28
:10078B000FD8E9EB300105F8D0E0C448B201C0E066
:10079B000AEC4D4E4F78207B0070C2EAB50A004040
:1007AB00BCC0E0120814D0F0D0E0200104C4C0E0BB
:1007BB00C4B201C0F01205A2D0F0D5F0EB0205F3E4
:1007CB00120550069053070A5806614C065D420706
:1007DB000E4F071644071649067643071C550700AC
:1007EB004607004507004708BC5006652D06692ED5
:1007FB00068C2B066D23068A2008A52A06254800A1
:10080B000006843F3F3F00790AA2D5200314300530
:10081B0009B910020404B9080104A2D5200602503C
:10082B0001042002689202B509005034C0E07F2019
:10083B003003197F30A20272067205500F12086B3B
:10084B00C202C206C205C2087F30800F300503E921
:10085B00C0E01205B9300503D0E0F9D0E0B509CC02
:10086B003005177F30B9100C1205B97F58300407CB
:10087B007F788003B908031205B93002057F2D027A
:10088B0005B97F202008F87F2B2006F322920280E7
:10089B00CF286E756C6C2900D2011205763001F8E9
:1008AB00C201780930D50108F60206252D504349BF
:1008BB00581205762403B405004001E49008B79361
:1008CB001205AA743A1205AAD20375090402070A83
:1008DB00D2A4D2A5D2A6C287121CEA900006120A95
:1008EB00C1900003120AC190000B120AC990000CB0
:1008FB00E41201A7120AA1900008120AC99000097C
:10090B00120ADF90000AE41201A7C2B2121BD31223
:10091B001C62121CAC7A1F7977120AE712185DC29F
:10092B00B7C2A77FC87E00121C32D2A7D2B77A1FDC
:10093B007984120AE77F011200157FE87E03121CEF
:10094B0032121CEAE9240DF9E43AA801FCAD037B51
:10095B00FF7A1F79927E007F061200F67E007F0BD6
:10096B00C006C0077F20C007121CF1D005D007D0EE
:10097B000612045E7E007F0BC006C0077F20C007F7
:10098B00121CF1E9240BF9E43AFAD005D007D00692
:10099B0012045E7E007F06C006C0077F20C00712D0
:1009AB001CEAE92413F9E43AFAD005D007D0061271
:1009BB00045E121CEA900019E41201A7121CF190BC
:1009CB000045120ADF900040E41201A7121CEA1244
:1009DB001C9C121CEAE4120195121CEA900004E420
:1009EB001201A7120003E4120195121CF8EF601319
:1009FB00121104121CFEC007120AD1D0E01201A77B
:100A0B00121D04120AD1120135700B121CEA900050
:100A1B0007120135601E120AA112134E121CEA9026
:100A2B000005120135B40E02B2B2121CEA90000599
:100A3B00E41201A7121CEA121C14121CEA12011C6C
:100A4B00D3648094894009121CEAE4120195800357
:100A5B00121CEA120AD812013564017013120AD85B
:100A6B00E41201A7B2A5120AAFB2A5B2A60209F50C
:100A7B00121CEA900003120135640260030209F5AF
:100A8B00121CEA900003E41201A7B2A4120AAFB23F
:100A9B00A4B2A60209F5121CEA900007E41201A702
:100AAB00121CEA22B2A6C2B7C2A77FC87E00121CD4
:100ABB0032D2A7D2B722E41201A7121CEA22E41207
:100ACB0001A7121CEA22121CEA90000522121CEA52
:100ADB0090000322E41201A7121CEA227BFF7D0186
:100AEB007F02121B0622900003120EF390000312DA
:100AFB000ED7120F437003020BC49000081201357E
:100B0B0064027065120EE06402701C04120EE61291
:100B1B000FCA7003020C2F900003120ED77404122D
:100B2B000195121CF18032900003120ED7120EE0C9
:100B3B0064036003020BC47402120EE6120FD07032
:100B4B0003020C2F900003120ED77404120195129E
:100B5B001CF1E9240BF9E43AFAC003C002C00112FC
:100B6B001CF190001612025B22900003120ED7901C
:100B7B00000812013564017040120EE0B4020774D4
:100B8B0001120C308018900003120ED7120EE0B435
:100B9B0003277402120C30E9240BF9E43AFAC00370
:100BAB00C002C001121CF190001612025B900003F0
:100BBB00120ED7900006E480687A1D7961120F3C03
:100BCB00121B06120EFE7F02121B06900003120E62
:100BDB00D7120FCA7BFF60067A1D797380047A1DCA
:100BEB0079837D017F03121B06900003120ED7122F
:100BFB000FD07BFF60067A1D799380047A1D79A351
:100C0B007D017F04121B06900003120ED790000982
:100C1B00E41201A7E4120F8AD2A7D2B79000067490
:100C2B00011201A7229000021201A7740312019571
:100C3B00121CF122900003120EF3120ED4120F436A
:100C4B006068120EE0120FD65028120FDD4023E918
:100C5B002413120F19C003C002C001120F2D120E64
:100C6B00D4120EE0120F05D001D002D0031205DB17
:100C7B008029120ED4120EE0B4100E900068E060C2
:100C8B0008E92413120F498012120ED4120EE0B48D
:100C9B000F09E4900068F004120F99900068E0B41B
:100CAB000708E4F0120ED4120F977F011200157A89
:100CBB001E7919120FAD121B06120EFE7F02121BAC
:100CCB0006900003120F792413F9E43AFA7D017FA1
:100CDB0002121B06120EFC7F03121B06120EFE7F66
:100CEB0004121B067F01120015120ED4900006741D
:100CFB00011201A7900004120135607C120ED490F2
:100D0B000004E41201A7E92421F9E43AFAC003C074
:100D1B0002C001900003120F792413F9E43AA801E1
:100D2B00FCAD03D001D002D0037E007F0612043A43
:100D3B00EF7038FE120EBD120FE4FF3395E0FEEF9D
:100D4B00240AFFE43EFE8F82F5831201357D00708D
:100D5B00027D01120ED48F828E83ED1201A7120F2A
:100D6B00E4900003120EE97401800A7E00120EBD9E
:100D7B00120EEC740712019522900003120EF390E1
:100D8B000003120ED7120F437003020E72120EE005
:100D9B00120FD6502C120FDD4027120EB3120F1D5F
:100DAB00C003C002C001120F2D900003120ED71208
:100DBB000EE0120F05D001D002D0031205DB020E9C
:100DCB0066900003120ED7120EE0B4101B90006851
:100DDB00E06015120EB3900068E014F0F582758395
:100DEB000074201201A78073900003120ED7120E0D
:100DFB00E0640F7066900068F00412019590000398
:100E0B00120ED7120FE4FFB4011D900003740112F0
:100E1B0001A7120FCA7E0070027E01900003120E12
:100E2B00D790000BEE8025EFB40224900003120E36
:100E3B00D790000374021201A7120FD07F0070022B
:100E4B007F01900003120ED790000CEF1201A790B8
:100E5B000003120ED7900006E48049900068E0D39F
:100E6B00940A4003740AF07A1D79E5120F6F121B76
:100E7B0006120EFE7F02121B06121CF190001612B8
:100E8B00022B7D017F02121B06120EFC7F03121B2D
:100E9B0006120EFE7F04121B06900003120ED79053
:100EAB00000674011201A722121CF1900016120207
:100EBB002B227F077D20900003E0FBA3E0FAA3E049
:100ECB002413F9E43AFA12045E900003E0FBA3E06A
:100EDB00FAA3E0F9229000050201359000021201FD
:100EEB00A7E49000060201A7EBF0A3EAF0A3E9F058
:100EFB00227BFF7A1D790F7D0122FF3395E0FEEFF8
:100F0B0024FFFFEE34FF900046F0A3EFF022F9E44C
:100F1B003AFA900068E0FF04F07E00E92FF9EE3A10
:100F2B00FA2290004374FFF0A3741DF0A374B3F086
:100F3B00227BFF7D017F0122900006020135F9E43F
:100F4B003AFAE014F07E0029F9EE3AFA7420020125
:100F5B00957F01121CBCAF058F907F01121CBCD278
:100F6B00B67F14227BFF7D017F0122900003E0FB03
:100F7B00A3E0FAA3E022900009E41201A774019008
:100F8B00000A0201A77A1D79D67D01227401900017
:100F9B00040201A79000097401120162C3648094DA
:100FAB0083227BFF7D017F0122121C9CE490006851
:100FBB00F090000322F582E43400F583E0FF2290E9
:100FCB00000B02013590000C020135FFD3648094B5
:100FDB008A22C3EF64809481229000020201359033
:100FEB000003120EF3900003120ED7120F43605D35
:100FFB00120EE0120FD6502B120FDD4026E9241AE9
:10100B00120F19C003C002C001120F2D9000031262
:10101B000ED7120EE0120F05D001D002D00312052D
:10102B00DB8018900003120ED7120EE0B4100C9058
:10103B000068E06006E9241A120F49900068E0B4DA
:10104B00060BE4F0900003120ED7120F97900003DB
:10105B00120ED7900020E41201A77A1D79B6120F59
:10106B006F121B067A1D79C67D017F02121B0612B9
:10107B000F76241AF9E43AFA7D017F03121B067BE3
:10108B00FF120F907F04121B06900003120ED774F1
:10109B0001120EED900004120135605C120F7624E4
:1010AB000DF9E43AFAC003C002C001900003A3E0BB
:1010BB00FAA3E0241AF9E43AA801FCAD03D001D05D
:1010CB0002D0037E007F0612043AEF900003700DEE
:1010DB00120ED7120FB4120ED77401800B120ED74B
:1010EB00120FB4120ED77406120195900003120E54
:1010FB00D7900004E4120EE922121AD9AD07121B85
:10110B0032ED70030211DFEF70030211DFED14708B
:10111B00030211B01460611460311460030211DD1D
:10112B00EF24FE60111460151460192403704790AE
:10113B0000AF740DF0229000AF740EF0229000AF50
:10114B00740FF0229000AF7410F022EF24FE6011A8
:10115B001460151460192403701C9000AF7409F00F
:10116B00229000AF740AF0229000AF740BF0229023
:10117B0000AF740CF022805CEF24FE60111460153C
:10118B001460192403701C9000AF7405F0229000BA
:10119B00AF7406F0229000AF7407F0229000AF748A
:1011AB0008F022802FEF24FE6011146015146019D3
:1011BB002403701C9000AF7401F0229000AF7402F6
:1011CB00F0229000AF7403F0229000AF7404F02271
:1011DB0080028000E49000AFF02290004EEBF0A371
:1011EB00EAF0A3E9F0A3E0FBA3E0FAA3E0F9120114
:1011FB001C700302129190004EE0FBA3E0FAA3E0F7
:10120B00F912011C700302129D900051E0F9A3E04A
:10121B00FAA3E0A3C9F0A3EAF0A3E9F090004EA370
:10122B00E0FAA3E0F9900057EBF0A3EAF0A3E9F0A2
:10123B00900054E0FBA3E0FAA3E0F912011CFF605D
:10124B0026900057E0FBA3E0FAA3E0F912011C6F14
:10125B00701590005575F0011201FF900058E47560
:10126B00F0011201FF80C9900054E0FBA3E0FAA348
:10127B00E0F912011C7002800D90004FE475F00133
:10128B001201FF02120190004EE0FBA3E0FAA3E073
:10129B00F9227B007A007900229000061219F97866
:1012AB00097C007A1F79407F37121A25121CF1E94D
:1012BB002419F9E43AFAC002C001900006121A1D73
:1012CB0090004DC91219FAA3740BF0D001D0021281
:1012DB0016A7121CF1E924199000431219F5121AE2
:1012EB002F12178990004374FFF0A3741EF0A374A0
:1012FB00CF121A2E12178990004374FFF0A3741E9D
:10130B00F0A374D1F0E4A3121A2E1215AA121343F0
:10131B00121AA81213439000461219F99000437445
:10132B00FFF0A3741EF0A374E1F07BFF7A1E79D358
:10133B001205E17F1A021C7F121CEAE92428F9E44A
:10134B003AFA22900000120EF3900000120ED71200
:10135B00011CB4090040030213E290136CF8282817
:10136B007302138702138C0213970213A20213AD9D
:10137B000213B80213C30213CE0213D91218BB8087
:10138B0056900000120ED7120AF1804B90000012FB
:10139B000ED7120FEA8040900000120ED7120D8468
:1013AB008035900000120ED712162B802A90000069
:1013BB00120ED7120C3F801F900000120ED712177F
:1013CB00F48014900000120ED712171D80099000A4
:1013DB0000120ED7121490900000120ED7120EE0CE
:1013EB00B40D05740812019522C0E0C0F0C083C093
:1013FB0082C0D075D000C000C001C002C003C004C1
:10140B00C005C006C007758CFC758A669000B0E0FD
:10141B00FF04F0EFB4960B9000AE7401F09000B0A7
:10142B00E4F0121CF190004612013560149000B1EB
:10143B00E004F0E0B4FA0A121CF1900046E4120149
:10144B00A7121CEA90000A120135601E9000B2E44C
:10145B0075F001120215AFF0FEBE030EBFE80B9044
:10146B0000B2E4F0A3F0B2A7B2B7D007D006D00514
:10147B00D004D003D002D001D000D0D0D082D08302
:10148B00D0F0D0E032900003120EF3900003120E56
:10149B00D7120F436039120EE0FFB402137402121D
:1014AB000195900003120ED7120EEC900008805D90
:1014BB00EFB4031B900003120ED774011201959029
:1014CB000003120ED7120EEC900008740280407FBE
:1014DB00011200157BFF7A1E79697D017F01121BBA
:1014EB00067A1E79797D017F02121B067A1E798A94
:1014FB007D017F03121B06120EFE7F04121B067F5B
:10150B0001120015900003120ED790000674011201
:10151B0001A722787FE4F6D8FD7581A50215650237
:10152B0008DBE493A3F8E493A34003F68001F208ED
:10153B00DFF48029E493A3F85407240CC8C333C405
:10154B00540F4420C8834004F456800146F6DFE470
:10155B00800B0102040810204080901BAEE47E013A
:10156B009360BCA3FF543F30E509541FFEE493A3E3
:10157B0060010ECF54C025E060A840B8E493A3FAF5
:10158B00E493A3F8E493A3C8C582C8CAC583CAF081
:10159B00A3C8C582C8CAC583CADFE9DEE780BE908F
:1015AB0000401219F99000481219F9121C8BE490A3
:1015BB000047F0900047E07064900043121A03F963
:1015CB00121B88EF7048121A3612013570E5900025
:1015DB0048121A1D900040C91219FA900040121AB5
:1015EB0003F912011CFF600F121C7F900041E47580
:1015FB00F0011201FF80E4121C78900046E0FF7EA0
:10160B0000121C4A121A3674011201A780A5121A75
:10161B0036E41201A79000477401F08096021C8BF0
:10162B00900003120EF37A1D79F71216817F0412C4
:10163B001B06121910121CF190001612022B12121B
:10164B00A47F011200157A1E79081216817F0412ED
:10165B001B067F011200157FE87E03121C329000DF
:10166B0003120ED77405120195900003120ED7903A
:10167B000006E40201A77BFF7D017F01121B067AA6
:10168B001D790F7D017F02121B067A1D790F7D01DB
:10169B007F03121B067A1D790F7D012290004A12DF
:1016AB0019F9E4900051F078527C007D017BFF7AB0
:1016BB001F790AFE7F041200F6900050E0FFA3E0B2
:1016CB006F604E90004D121A03F9900051E0FFFD30
:1016DB003395E08D82F583120135900055F0EF3391
:1016EB0095E0FEEF7802C333CE33CED8F990004AA3
:1016FB00121A022FF9EA3EA801FCAD037B017A0016
:10170B0079527E007F041200F6900051E004F080C5
:10171B00A822900003120EF3900003120ED7120FA3
:10172B00436016120EE060117405120195900003D0
:10173B00120ED7900006E48041900003120ED712D0
:10174B000F9F4003120F817BFF7A1E79487D017F2B
:10175B0001121B067A1E79587D017F02121B06129D
:10176B000F907F03121B06120F907F04121B069023
:10177B000003120ED790000674011201A7229000ED
:10178B0040EBF0A3EAF0A3E9F0900046EBF0A3EAFC
:10179B00F0A3E9F0900040E0FBA3E475F001120226
:1017AB0015A9F0FA12011C70EB90004174FFF5F0D3
:1017BB001201FF900043E0FBA3E475F00112021548
:1017CB00A9F0FA12011CFF900040E0FBA3E475F0B6
:1017DB0001120215A9F0FAEF12019570D69000468E
:1017EB00E0FBA3E0FAA3E0F922900003120EF390C2
:1017FB000003120ED7120F436016120EE060117425
:10180B0002120195900003120ED7900006E4803E61
:10181B00900003120ED7120F9F4003120F817A1EF6
:10182B007929120FAD121B067A1E79387D017F02C2
:10183B00121B06120F907F03121B06120F907F04D0
:10184B00121B06900003120ED790000674011201B2
:10185B00A722E4900000F0121C8B900000E0704F68
:10186B00121C8B7BFF7A1E79D8121B5E121C787FA1
:10187B00DC7E05121C4AB2B7E4900001F090000127
:10188B00E0FFC3943C50D374222FF8E6B43A18E02F
:10189B002424F8E66430600874262FF8E6B4310788
:1018AB009000007401F022900001E004F080CE2241
:1018BB00900003120EF37F011200157A1D7920128E
:1018CB000F3C121B067A1D79317D017F02121B061C
:1018DB007A1D79417D017F03121B067A1D79517D9B
:1018EB00017F04121B067F01120015900003120EDC
:1018FB00D7120EE0600E7408120195900003120EC1
:10190B00D7120EEC2278067C007A1F790E7F3212EA
:10191B001A25121A0B7A1E799B12194AE4A3F07A34
:10192B001E79A312194AA37464F07BFF7A1E79AD5A
:10193B001215AA121A0B7BFF7A1E79C00215AA7B0D
:10194B00FF1215AA90004374FFF0A3741EF0A3744A
:10195B00A0F0229000B41204DF7810EC4D4E4F70C3
:10196B00047CA57DA5C3EC13FCED13FDEE13FEEF7C
:10197B0013FF5010EC64CCFCED644CFDEE644EFE9A
:10198B00EF64CEFFD8DF9000B41204EBEE547FFE71
:10199B00229000B4EEF0EFA3F0A374A5F0A3F02215
:1019AB009000431219F9A3EDF0E4A3F0F090004678
:1019BB00E0FFA3E0FEC3EF6480F8EE64809850294B
:1019CB00E4FD7F09121A76EF2430900043121A02BD
:1019DB00F9900047E0FD3395E08D82F583EF12011E
:1019EB00A7900047E004F080C422F9E43AFAEBF048
:1019FB00A3EAF0A3E9F022FFE0FBA3E0FAA3E022C5
:101A0B0090004374FFF0A3741EF0A374A0F0E4A342
:101A1B00F022E0F9A3E0FAA3E0227D017BFF7E0038
:101A2B000200F6F07B017A00790922121CF190007A
:101A3B004622C0E0C083C082C0D075D000C000C0B9
:101A4B0007309815C2989000B9E0FF04F074222F6C
:101A5B00F8A699E0B43B02E4F0309902C299D007A2
:101A6B00D000D0D0D082D083D0E032900048EFF0BD
:101A7B00A3EDF012195E900049E0FD3395E0FC9068
:101A8B000048E0FB3395E0FAC3EB9DFDEA9CCD24C7
:101A9B0001CD3400FC1201C9A3E02DFF22900040C0
:101AAB001219F9121CEAE92421F9E43AFA7D06121B
:101ABB0019AB121CEAE924219000461219F590008B
:101ACB0040121A03F99000497406F0021BF4E4FF6C
:101ADB007580F0E58064F06021AE80EE2450600FDD
:101AEB0024E0600E24F0600D2470700C7F01227FC7
:101AFB0002227F03227F0422E4FF22900006EFF0F4
:101B0B00AC0512000EE02468120FC0EC14FEEF2E91
:101B1B00FF12001512011CFF600C121CCA74012964
:101B2B00F9E43AFA80EE22E4FF75800FE580640F4A
:101B3B006020AE80EE24F5600E24FE600D14600D67
:101B4B002407700C7F01227F02227F03227F042255
:101B5B00E4FF229000021219F9900002121A03F905
:101B6B0012011C6017900002A3E475F0011202151C
:101B7B00A9F0FA12011CFF121C7F80DD2290004B92
:101B8B001219F990004B121A1D900051C91219FA33
:101B9B007B007A0079221211E5E94A4B7F00600243
:101BAB007F01224100B80044006980908898410071
:101BBB00B9004100AF004100AE004100B000410050
:101BCB00B1004200B2000000C2B37F1E7E00121CA7
:101BDB0032D2B37F147E00121C327F301200157F7D
:101BEB000C1200157F01020015C002C001900046C7
:101BFB00121A1D90004DC91219FA900049E090007D
:101C0B0050F0D001D0020216A7900001120135FF4F
:101C1B0012011CFE6F600F900001EE1201A79000E5
:101C2B000774011201A722AD07AC06D3ED9400ECAB
:101C3B009400400A121CD8ED1D70F01C80ED22ADF3
:101C4B0007AC06D3ED9400EC9400400A121CE1EDB6
:101C5B001D70F01C80ED22438920759850758DFD09
:101C6B00858D8BE4F587D2AFD2ACD28E227F0D124D
:101C7B001C7F7F0AC2AC8F993099FDC299D2AC22DE
:101C8B00E4FF7E3C7822E4F608DEFCE49000B9F039
:101C9B00227E007F067D20E9241AF9E43AFA020439
:101CAB005E438901758CFC758A66D2AFD2A9D28C42
:101CBB0022EFD3940040077E03DEFE1F80F322AD9C
:101CCB0007C2B6C2B5D2B4120F5C021CBC7F667ED3
:101CDB0003DEFEDFFA227F667E03DEFEDFFA227B67
:101CEB00017A00796D227B007A00795E229000AE3A
:101CFB00E0FF229000AFE0FF22E49000AEF022AEB6
:101D0B0007021C7F202020202020202020202020A4
:101D1B002020202000BBF9D3DAB5A5C6ACBBFAB5A1
:101D2B00C447534D200020202020D6C7C4DCBFEC75
:101D3B00B5DDB9F120002020BFD8D6C6CFB5CDB3C5
:101D4B00C9E8BCC6200020202020D1EECEC4C8BAE2
:101D5B00202020202000C7EBD1A1D4F1BBF5B9F195
:101D6B00BAC5C2EB20203A00BFECB5DDB9F120318A
:101D7B003A20D2D1B4E62000BFECB5DDB9F1203169
:101D8B003A20CEB4B4E62000BFECB5DDB9F1203279
:101D9B003A20D2D1B4E62000BFECB5DDB9F1203248
:101DAB003A20CEB4B4E62000256400C7EBB5C7C219
:101DBB00BCC4FAB5C4D5CBBAC52000B5C7C2BCC329
:101DCB00DCC2EBA3BA2020202020002020202020E2
:101DDB0020202020202020202000C7EBCAE4C8EBC5
:101DEB00CAD6BBFABAC5C2EB3A202000B6CCD0C5D6
:101DFB00B7A2CBCDD6D02E2E2E20202000B6CCD005
:101E0B00C5B7A2CBCDB3C9B9A62020202000C7EB04
:101E1B00CAE4C8EBD1E9D6A4C2EB3A202000C3DC5C
:101E2B00C2EBB4EDCEF321212120202000C7EBD64D
:101E3B00D8D0C2CAE4C8EBC3DCC2EB2000D1E9D6D0
:101E4B00A4C2EBB4EDCEF3212121202000C7EBD6A9
:101E5B00D8D0C2CAE4C8EBD1E9D6A4C2EB00C7EB19
:101E6B00D1A1D4F1B9A6C4DC3A2020202000B4E6DD
:101E7B00B0FCB9FC2020202020202020202000C8EE
:101E8B00A1B0FCB9FC202020202020202020200005
:101E9B0041544530004F4B0041542B434D47463D79
:101EAB00310041542B43534D503D31372C31363794
:101EBB002C312C380041542B435343533D22554373
:101ECB005332220022003E00257325730041542B10
:101EDB00435245473F0036363761383066643566C6
:101EEB006562393031323637646366663063396127
:101EFB0038633862633137383031666631610030B0
:101F0B0030330041542B435343413D00000000004C
:101F1B0000000000000000000000000000000000B6
:101F2B0000000000000000000000000000000000A6
:101F3B00000000000041542B434D47533D2200004D
:101F4B000000000000000000000000000000000086
:101F5B000000000000000000000000000000000076
:101F6B00000000000000000000000000B3F5CABC38
:101F7B00BBAFD6D02E2E2E2000B3F5CABCBBAFB351
:0E1F8B00C9B9A620202000353433333232008D
:00000001FF
